{
  "contractName": "Food",
  "abi": [
    {
      "constant": true,
      "inputs": [],
      "name": "FoodIndex",
      "outputs": [
        {
          "name": "",
          "type": "uint256"
        }
      ],
      "payable": false,
      "stateMutability": "view",
      "type": "function"
    },
    {
      "inputs": [],
      "payable": false,
      "stateMutability": "nonpayable",
      "type": "constructor"
    },
    {
      "anonymous": false,
      "inputs": [
        {
          "indexed": false,
          "name": "_FoodIndex",
          "type": "uint256"
        }
      ],
      "name": "NewFood",
      "type": "event"
    },
    {
      "constant": true,
      "inputs": [],
      "name": "getIndex",
      "outputs": [
        {
          "name": "",
          "type": "uint256"
        }
      ],
      "payable": false,
      "stateMutability": "view",
      "type": "function"
    },
    {
      "constant": false,
      "inputs": [
        {
          "name": "foodName",
          "type": "string"
        },
        {
          "name": "productDate",
          "type": "string"
        },
        {
          "name": "exp",
          "type": "uint256"
        },
        {
          "name": "manufacturer",
          "type": "string"
        },
        {
          "name": "advicePrice",
          "type": "uint256"
        },
        {
          "name": "serialNumber",
          "type": "string"
        },
        {
          "name": "condition",
          "type": "uint256"
        },
        {
          "name": "imgHash",
          "type": "string"
        }
      ],
      "name": "addFoodToStore",
      "outputs": [],
      "payable": false,
      "stateMutability": "nonpayable",
      "type": "function"
    },
    {
      "constant": true,
      "inputs": [
        {
          "name": "_FoodId",
          "type": "uint256"
        }
      ],
      "name": "getFood",
      "outputs": [
        {
          "name": "",
          "type": "string"
        },
        {
          "name": "",
          "type": "string"
        },
        {
          "name": "",
          "type": "uint256"
        },
        {
          "name": "",
          "type": "string"
        },
        {
          "name": "",
          "type": "uint256"
        },
        {
          "name": "",
          "type": "string"
        },
        {
          "name": "",
          "type": "uint8"
        },
        {
          "name": "",
          "type": "string"
        }
      ],
      "payable": false,
      "stateMutability": "view",
      "type": "function"
    }
  ],
  "bytecode": "0x608060405234801561001057600080fd5b5060008081905550610bb7806100276000396000f300608060405260043610610062576000357c0100000000000000000000000000000000000000000000000000000000900463ffffffff168063030e41d3146100675780631e4de8721461009257806362f724611461030b57806381045ead146104aa575b600080fd5b34801561007357600080fd5b5061007c6104d5565b6040518082815260200191505060405180910390f35b34801561009e57600080fd5b506100bd600480360381019080803590602001909291905050506104db565b60405180806020018060200189815260200180602001888152602001806020018760018111156100e957fe5b60ff1681526020018060200186810386528e818151815260200191508051906020019080838360005b8381101561012d578082015181840152602081019050610112565b50505050905090810190601f16801561015a5780820380516001836020036101000a031916815260200191505b5086810385528d818151815260200191508051906020019080838360005b83811015610193578082015181840152602081019050610178565b50505050905090810190601f1680156101c05780820380516001836020036101000a031916815260200191505b5086810384528b818151815260200191508051906020019080838360005b838110156101f95780820151818401526020810190506101de565b50505050905090810190601f1680156102265780820380516001836020036101000a031916815260200191505b50868103835289818151815260200191508051906020019080838360005b8381101561025f578082015181840152602081019050610244565b50505050905090810190601f16801561028c5780820380516001836020036101000a031916815260200191505b50868103825287818151815260200191508051906020019080838360005b838110156102c55780820151818401526020810190506102aa565b50505050905090810190601f1680156102f25780820380516001836020036101000a031916815260200191505b509d505050505050505050505050505060405180910390f35b34801561031757600080fd5b506104a8600480360381019080803590602001908201803590602001908080601f0160208091040260200160405190810160405280939291908181526020018383808284378201915050505050509192919290803590602001908201803590602001908080601f016020809104026020016040519081016040528093929190818152602001838380828437820191505050505050919291929080359060200190929190803590602001908201803590602001908080601f016020809104026020016040519081016040528093929190818152602001838380828437820191505050505050919291929080359060200190929190803590602001908201803590602001908080601f016020809104026020016040519081016040528093929190818152602001838380828437820191505050505050919291929080359060200190929190803590602001908201803590602001908080601f01602080910402602001604051908101604052809392919081815260200183838082843782019150505050505091929192905050506108dd565b005b3480156104b657600080fd5b506104bf610a85565b6040518082815260200191505060405180910390f35b60005481565b6060806000606060006060600060606104f2610a8e565b600160008b8152602001908152602001600020610120604051908101604052908160008201548152602001600182018054600181600116156101000203166002900480601f0160208091040260200160405190810160405280929190818152602001828054600181600116156101000203166002900480156105b55780601f1061058a576101008083540402835291602001916105b5565b820191906000526020600020905b81548152906001019060200180831161059857829003601f168201915b50505050508152602001600282018054600181600116156101000203166002900480601f0160208091040260200160405190810160405280929190818152602001828054600181600116156101000203166002900480156106575780601f1061062c57610100808354040283529160200191610657565b820191906000526020600020905b81548152906001019060200180831161063a57829003601f168201915b5050505050815260200160038201548152602001600482018054600181600116156101000203166002900480601f0160208091040260200160405190810160405280929190818152602001828054600181600116156101000203166002900480156107035780601f106106d857610100808354040283529160200191610703565b820191906000526020600020905b8154815290600101906020018083116106e657829003601f168201915b5050505050815260200160058201548152602001600682018054600181600116156101000203166002900480601f0160208091040260200160405190810160405280929190818152602001828054600181600116156101000203166002900480156107af5780601f10610784576101008083540402835291602001916107af565b820191906000526020600020905b81548152906001019060200180831161079257829003601f168201915b505050505081526020016007820160009054906101000a900460ff1660018111156107d657fe5b60018111156107e157fe5b8152602001600882018054600181600116156101000203166002900480601f01602080910402602001604051908101604052809291908181526020018280546001816001161561010002031660029004801561087e5780601f106108535761010080835404028352916020019161087e565b820191906000526020600020905b81548152906001019060200180831161086157829003601f168201915b505050505081525050905080602001518160400151826060015183608001518460a001518560c001518660e001518761010001518797508696508494508292508090509850985098509850985098509850985050919395975091939597565b6108e5610a8e565b600160008082825401925050819055506101206040519081016040528060005481526020018a815260200189815260200188815260200187815260200186815260200185815260200184600181111561093a57fe5b600181111561094557fe5b815260200183815250905080600160008054815260200190815260200160002060008201518160000155602082015181600101908051906020019061098b929190610ae6565b5060408201518160020190805190602001906109a8929190610ae6565b506060820151816003015560808201518160040190805190602001906109cf929190610ae6565b5060a0820151816005015560c08201518160060190805190602001906109f6929190610ae6565b5060e08201518160070160006101000a81548160ff02191690836001811115610a1b57fe5b0217905550610100820151816008019080519060200190610a3d929190610ae6565b509050507f6342d3adc4485c9ce2ab9749091b291d6bf4d88dbe4663b0811b89cdd3bebf356000546040518082815260200191505060405180910390a1505050505050505050565b60008054905090565b610120604051908101604052806000815260200160608152602001606081526020016000815260200160608152602001600081526020016060815260200160006001811115610ad957fe5b8152602001606081525090565b828054600181600116156101000203166002900490600052602060002090601f016020900481019282601f10610b2757805160ff1916838001178555610b55565b82800160010185558215610b55579182015b82811115610b54578251825591602001919060010190610b39565b5b509050610b629190610b66565b5090565b610b8891905b80821115610b84576000816000905550600101610b6c565b5090565b905600a165627a7a72305820a4acf72217865ef52543146962cd0f46750a71741fbd30a62c179d51231c51960029",
  "source": "// SPDX-License-Identifier: MIT\npragma solidity ^0.4.17;\n\n\n\ncontract Food{\n   \n    enum FoodCondition { Normal, Recall }\n\n    uint public FoodIndex;\n    \n    mapping (uint => Food) stores;\n   \n  \n    struct Food{\n        uint id;\n        string foodName;//食品名\n        string productDate; //\n        uint exp; \n        string manufacturer;\n        uint advicePrice;   \n        string serialNumber;\n        FoodCondition condition; //狀態\n        string imgHash;\n       \n    } \n\n   \n    event NewFood(uint _FoodIndex);\n    constructor() public{\n        FoodIndex = 0;\n    }\n    \n    function getIndex() public view returns(uint ){\n        return(FoodIndex);\n    }\n    function addFoodToStore(string foodName, string productDate, uint exp, string manufacturer\n        , uint advicePrice, string serialNumber,uint condition ,string imgHash) public {\n       FoodIndex+=1;\n        Food memory food = Food(FoodIndex, foodName, productDate, exp, manufacturer\n            , advicePrice,serialNumber, FoodCondition(condition),imgHash);\n        stores[FoodIndex] = food;  \n        emit NewFood(FoodIndex);\n    }\n    function getFood(uint _FoodId) public view returns (string, string, uint, string, uint, string,  FoodCondition,string){\n        Food memory food = stores[_FoodId];\n        return (food.foodName, food.productDate, food.exp, food.manufacturer, food.advicePrice\n            ,food.serialNumber, food.condition,food.imgHash);    \n    }\n    // function updatePosition(uint _FoodId,string _newPosition) public returns(bool){\n    //      Food storage Food = stores[_FoodId];\n    //     Food.position = _newPosition;\n    //     return true;\n    // }\n\n\n}",
  "sourcePath": "/root/vue-login-manage-system-master/contracts/Food.sol",
  "compiler": {
    "name": "solc",
    "version": "0.4.22+commit.4cb486ee.Emscripten.clang"
  },
  "schemaVersion": "3.3.1",
  "updatedAt": "2021-04-20T03:13:47.303Z",
  "networkType": "ethereum",
  "devdoc": {
    "methods": {}
  },
  "userdoc": {
    "methods": {}
  }
}